:020000040000fa
:080000000002040000000000f2
:020000040000fa
:10000800f8020000f8020000f8020000f802000000
:10001800f8020000f8020000f8020000f8020000f0
:10002800f8020000f8020000f8020000d41e0000e8
:10003800f8020000f8020000f80200009402000034
:10004800f8020000f8020000f8020000282f000063
:100058005c2f0000f8020000f8020000f80200001f
:10006800f8020000f8020000f8020000f8020000a0
:10007800f8020000f8020000f8020000f802000090
:10008800f8020000f8020000f8020000f802000080
:10009800f8020000f8020000f8020000f802000070
:1000a800f8020000f8020000f8020000f802000060
:1000b800f8020000f8020000f8020000f802000050
:1000c800f8020000f8020000f8020000f802000040
:1000d800f8020000f8020000f8020000f802000030
:1000e800f8020000f8020000f8020000f802000020
:1000f800f8020000f8020000f8020000f802000010
:10010800f8020000f8020000841e0000f802000057
:10011800f8020000f8020000f8020000f8020000ef
:10012800f8020000f8020000f8020000f8020000df
:10013800f8020000f8020000f8020000f8020000cf
:10014800f8020000f8020000f8020000ac1e0000ef
:10015800f8020000f8020000f8020000f8020000af
:10016800f8020000f8020000f8020000f80200009f
:10017800f8020000f8020000f8020000f80200008f
:10018800f8020000f8020000f8020000f80200007f
:10019800f8020000f8020000f8020000f80200006f
:1001a800f8020000f8020000f8020000f80200005f
:1001b800f8020000f8020000f8020000f80200004f
:1001c800f8020000f8020000f8020000f80200003f
:1001d800f8020000f8020000f8020000f80200002f
:1001e800f8020000f8020000f8020000f80200001f
:0801f800f8020000f80200000b
:020000040000fa
:10020800f8020000f8020000f8020000f8020000fe
:10021800f8020000f8020000f8020000f8020000ee
:10022800f8020000f8020000f8020000d41e0000e6
:10023800f8020000f8020000f80200009402000032
:10024800f8020000f8020000f8020000282f000061
:100258005c2f0000f8020000f8020000f80200001d
:10026800f8020000f8020000f8020000f80200009e
:10027800f8020000f8020000f8020000f80200008e
:10028800f8020000f8020000f8020000f80200007e
:10029800f8020000f8020000f8020000f80200006e
:1002a800f8020000f8020000f8020000f80200005e
:1002b800f8020000f8020000f8020000f80200004e
:1002c800f8020000f8020000f8020000f80200003e
:1002d800f8020000f8020000f8020000f80200002e
:1002e800f8020000f8020000f8020000f80200001e
:1002f800f8020000f8020000f8020000f80200000e
:10030800f8020000f8020000841e0000f802000055
:10031800f8020000f8020000f8020000f8020000ed
:10032800f8020000f8020000f8020000f8020000dd
:10033800f8020000f8020000f8020000f8020000cd
:10034800f8020000f8020000f8020000ac1e0000ed
:10035800f8020000f8020000f8020000f8020000ad
:10036800f8020000f8020000f8020000f80200009d
:10037800f8020000f8020000f8020000f80200008d
:10038800f8020000f8020000f8020000f80200007d
:10039800f8020000f8020000f8020000f80200006d
:1003a800f8020000f8020000f8020000f80200005d
:1003b800f8020000f8020000f8020000f80200004d
:1003c800f8020000f8020000f8020000f80200003d
:1003d800f8020000f8020000f8020000f80200002d
:1003e800f8020000f8020000f8020000f80200001d
:0803f800f8020000f802000009
:020000040000fa
:100400004fc020000e7f24000e0188000000000075
:1004100000012000200288000c000700c04a2200d2
:100420000100200011000700000020000000e00093
:10043000020032000000020000000000083002004c
:10044000000000000040da000000fe004440a90067
:10045000000420000000e000030032000000200043
:10046000a00188004440a800000006009101880017
:10047000800078000000eb0015003700e2804000ab
:1004800032a0b4009101ba00e280400032a0b40072
:100490009102ba00e280400032a0b4000002eb00fa
:1004a000472bde00f507b200602ce10004003a00a3
:1004b0000059eb008301e900fdff3e000400370016
:1004c0006128e100010032000082eb000400070017
:1004d0001101ba000200e000e8ff3a000000060047
:1004e0003159ba008301e9000c0032002159ba00e9
:1004f0008301e900080032000400e00003003a0034
:10050000e280400032a0b400f5ff370011d9ba00f4
:100510008301e900faff3a008100e800e180400031
:1005200032a0b400000006003600f800809fbe0034
:10053000829fbe00849fbe00869fbe000000fa001e
:10054000d44d8000e00f520003003a00361007003f
:100550008a13070005003700d44d8000e10f5200d8
:1005600002003a00711307003b10070084e0a90065
:100570000080fa004f03be004f02be004f01be00d4
:100580004f00be003600f900004006000000fa00ef
:100590008b130700411007006011b8006000b8001d
:1005a000111307006011b8006000b800a40f070025
:1005b00010002000080007009186210050fa250055
:1005c00082000700c0ff2f006a00070011e1a800a9
:1005d0000080fa00000006000200fa00000f780018
:1005e0001e027800d44d88000080fa00000006004a
:1005f0000040da000000fe006900e1000400350060
:100600006d00e100030034000002b100010032007f
:1006100000000500100005009b40a900f08f2f008e
:10062000e021b6008b40a900000006009d60a900f3
:10063000f08f2f00f021b6008d60a90000000600a9
:100640008b40a900e7026000c82add00f48f2f006c
:100650000606800006026200050272000406880099
:10066000680060004300de00610060004a00dd00b9
:10067000f4bf2f00d5048000050262000002720062
:10068000d4048800000006008d60a900e702600025
:10069000cc2add00f4ff2800460680000602620036
:1006a0000502720044068800680060004300de0016
:1006b000610060004b00dd00f47f2f00e504800046
:1006c0000502620000027200e404880000000600d7
:1006d000e1e1a900f4ff220084026000050f880018
:1006e0000480200004006000f47f2f00050f8000cc
:1006f0000502620000007200000f8800110f8800e0
:1007000000000600f1e1a900f4ff2200840260006d
:10071000850f88000480200004006000f47f2f0013
:10072000850f80000502620000007200800f8800c3
:10073000910f8800000006008460a900e7026000b5
:10074000cc2add00f4ff28002605800006026200a6
:1007500005027200240588006800600074ff2f0005
:10076000a50480000502620000007200a004880059
:100770000000060084e0a900e7026000cc2add004a
:10078000f4ff2800360580000602620005027200b0
:1007900034058800680060004300de0061006000ee
:1007a0004700dd00f4f72f00a50480000502620079
:1007b00000027200a4048800000006000021ef007f
:1007c0001108880020088800000006000621ef00bc
:1007d00061088800800888001061a90000000600f8
:1007e0008560a9008580a900e7026000cc2add00b1
:1007f000f4ff280046058000060262000502720030
:1008000044058800800278000507b200c42ade0093
:1008100084ff2f0056058000060262000502720068
:1008200054058800e8026000c32ade00e18262000d
:10083000cb2add00f47f2f00a604800006026200b0
:1008400005027200a40488000008b2004700de0020
:10085000610060004c00dd00f4ff2e00a504800064
:100860000502620000027200a40488000000060075
:1008700010118000614060000000060042118800f5
:1008800000118800111188000000060003f0a2008a
:10089000889fbe008a9fbe008c1f78000001070061
:1008a000070133006450e1004f0032006420e10092
:1008b0005200320003826c0007003b000905d000a3
:1008c0000306d000820f54000c065d0002003900c0
:1008d0000200320089017800030678008582550005
:1008e00004003d000003fd008103fd008502ea00d5
:1008f0008b854200840f720002003b0060001000f4
:10090000e08018006011b8000005eb007a28e100d3
:100910000a00390006007800c75ddd00f707b20065
:10092000878075002d003700828171000a017800f0
:10093000610560008180d1000080d3008502e9005c
:10094000f9ff3b00060440008784480002003b009a
:1009500060041400e0841c000988a3000700320032
:100960008a81710082817100610164008904d10073
:100970000884d3008b05e800170037000978a3002e
:1009800013003a000b00e000130034008b05e9006f
:100990000804440089844c000a4474000978a300c8
:1009a0000d003a000b00e000070034008b05e90061
:1009b0000804440089844c0001003a000b00200028
:1009c0000978a300f7ff32000001eb0002003700b6
:1009d000828171000a017800760007000cf0a70000
:1009e00001f0a000bf0037006420e10002003a00df
:1009f000838f6c00bf0033000801be000200be0000
:100a0000b80037000081eb00f1003700889fbe007e
:100a10008a9fbe008c1f7800a1000700a800330049
:100a200003866c006450e1002e0032006420e10077
:100a3000330032006150e1002f0032006120e100fc
:100a40003100320085855500eb07b0000900200019
:100a500008042000050037000804440089844c0085
:100a60000a0031000603430087834b000001530056
:100a700081815b00f8ff33000203be000800a00084
:100a80000804440089844c00f6ff3900c639dd00b3
:100a90008301730001003200130020008904d1009b
:100aa0000884d3000998a300050032000800a700bd
:100ab0000300a0008904d1000884d3008b05e8005e
:100ac0008904d1000884d3000001eb000281d20028
:100ad0003800070001f0a1000cf0a70001f0a00011
:100ae000800037006420e100820032000801be006f
:100af0000200be00f7ff37006120e1007d003200f8
:100b00006000b800f3ff37000000200001f8270064
:100b1000f0ff37001400200018013700f4ff2f0009
:100b2000160137000001be00480007000470a7004e
:100b300003f0a1006509b100160032000d00350078
:100b40006828e10006003500f0ff2f00f1ff2700c4
:100b50000300e00013003b00010028000000050036
:100b600000004000818048008502e900fcff3a0057
:100b700008003700f88f420002003c008000eb00c4
:100b8000000005008100d1000080d3008502e8004c
:100b9000fcff3a000300e00002003b006000100090
:100ba000e0801800000006004f89de008201780016
:100bb0000d01370081002000618055000b003d00d1
:100bc0000b00200061fe2f000100e1001d00340039
:100bd00082817100610164008904d1000884d3001e
:100be0000000e800faff3a00710020006100640094
:100bf000030070000200600009003200610444003c
:100c0000e0844c000988a500050032008b05e8004f
:100c10006808e10002003a008904d1000884d3008a
:100c2000f20f20000258e10005003d00c75ddd0025
:100c3000f907b200898075000800780000000600fe
:100c40000bf827008b00780000000500c70ade00c3
:100c5000f107b200f50fb20008003200e1cf420008
:100c6000020032000170a00024000500810f700016
:100c7000010032000408050044000500810f7000e7
:100c800002003a00140005008502e900000040005f
:100c900081c04800fcff3b000170a000240005005b
:100ca0000004be00e9ff07000003be000405be000b
:100cb0000200be00e5ff0700844f7500000006003b
:100cc0000200be006450e100050036006420e1002f
:100cd000020036000968a30001003a000800be00c7
:100ce0000160a0004f0678004f05be004f04be0013
:100cf00000000600f0ff2f00f1ff2700f9ff37008a
:100d0000889fbe008a9fbe008c1f7800e4ff07000a
:100d1000ebff330003866c006450e10024003200d6
:100d20006420e100270032006150e100220032001f
:100d30006120e100210032008b854200eb07b10009
:100d40000134b800003ab8000804420089844a001f
:100d5000013ab8000030b8008880400009014a001c
:100d60000400330000004000818048000201490077
:100d70008b05e900c909dd00830170000100320024
:100d800013002000c814de004814dd004709de000f
:100d90001200b200c808de000884700085ff07005a
:100da00001f0a1000cf0a70001f0a000cdff37007a
:100db0006120e100cfff32000801be000200be004a
:100dc000f7ff37006150e100fcff3a00c9ff370030
:100dd000889fbe008a9fbe008c9fbe00820578005f
:100de0000004be0099ff07000800be006420e10077
:100df0000700390002003a00f1ff2700f0ff2f0042
:100e00000160a00012022000e24d8800550037006a
:100e10006120e10003003a000b00a70001f8230065
:100e20005000370001f0a10002002100936424006b
:100e300038ff07000800be0004003500b2fd2000a6
:100e4000930c2400a70007000004be000005eb007f
:100e50000b00a6004f0dde0001f0a1000004be0053
:100e600032982f0023ea2300a5ff07000001eb00c2
:100e700003f023000b00a70003f8230084fe070003
:100e800028ff07000000a7000a00a20046ff070095
:100e90000b00e000030032000200200003f02300fa
:100ea0007afe070001f0a2000006be00020020004a
:100eb0009304240092ff07000801be0074fe07009f
:100ec000809fbe000c00be0022a22a00d3a72300f0
:100ed0008bff07004f01be006dfe07000004be003f
:100ee00001f0a100020020000398230009ff070081
:100ef0000800be00190035000001be0080ff070099
:100f00000006be00b2c52900e36223007cff070093
:100f100022222b00f3942b005dfe07000c01be0083
:100f200077ff0700e273280083c0230058fe070004
:100f30000c01be0072ff070042aa2a00a3e22b00a8
:100f400053fe07000c01be006dff07000801be0044
:100f50006bff07000801be004dfe07000a00a70056
:100f600001f0a2004f06be004f05be004f04be00b8
:100f7000000006000001eb0095ff3700889fbe00cf
:100f80008a9fbe00841f780045ff07004f0078004d
:100f900011003300f0ff2f00838f6c0006003b0030
:100fa000040565000a00a7000800370009f0a60044
:100fb0001000200008003700820f5400838f5c006f
:100fc000030039001000200001003e000000200056
:100fd00009f0a7000000ea004f05be004f04be0064
:100fe0000000e00000000600881f7800030478007d
:100ff0000300e00007003d0060001000e0801800e2
:1010000060011900e081190002003b0001f02d0091
:10101000030037000400070008f0a70001f0a0005b
:101020004f04780000000600889fbe008a9fbe0023
:1010300000827000040271000482710026003200f8
:101040000004be000200be006011b8006b09200061
:10105000950220000182cf000a0039000541b1004d
:101060000082cf00070039000541b1000982cf009e
:10107000040039000541b1000882cf0001003900a9
:101080000541b10005425200120032000a003b0047
:1010900082817100610164008100d1000080d30071
:1010a0008984d3000884d3008b05e8000442e8005b
:1010b000f7ff3a00070037000804440089844c0019
:1010c00000004800818048008b05e9000442e900e7
:1010d000f9ff3a00b7fe07004f05be004f04be00ff
:1010e000000006000400200000003700889fbe00ba
:1010f0008a9fbe008c1f78004f26dd00e8fe0700a7
:10110000effe33006120e100430032006250e10055
:1011100041003e003e0039006420e1003c00320006
:10112000058255000f003b000402e80038003a0039
:10113000800f5300818f5b00350034000800be0033
:1011400003f0a10001f0a60003f0a0000cf0a7003e
:10115000cffd0700e3fe37000603430087834b0003
:101160000c4646000005530081855b0002003300f9
:101170000a03be000c00a0000402e900f6ff3b00d9
:10118000850578000602430087824b0004003a0080
:101190006000b80009f0a70001f0a000d1fe370000
:1011a0000002520081825a000704e000040033006c
:1011b0000603430087834b008b05e900faff3700e5
:1011c000090578000604be000203be006011b800e5
:1011d00078fe0700e00f5200e08f5a00070035004c
:1011e00002003c000c08a300040032000601be000f
:1011f00003f0a0000cf0a700a5fd07000a85680019
:1012000001f0a1000af0a70001f0a000b5fe370030
:101210000800be00b3fe3700100220000cf0a6004c
:10122000e04d8800b3fe3700ea874700889fbe0084
:101230008a9fbe008c9fbe008e1f780081057800bb
:10124000e08f550001003200800d78000005780025
:101250008a047800090578003a06fb000c00780043
:10126000e5fc0700e00f5000f9ff3a00d40220002f
:10127000840f560003003a008a04780018c0b300b7
:101280000500370000447800b4022000840f5600a7
:1012900001003a008a0478006000b8008006eb0084
:1012a0000d0578000ecdb300e4c2b3000100370095
:1012b0008904e800890278007003640004003a00a1
:1012c000994f120002003a000844a000f8ff3700ce
:1012d000194678000c03fb000603b100e90f530028
:1012e00017003e000814a0008802fb00e98f56009a
:1012f0000f003200f0826200010032000a05e900ae
:101300008d06e800a200200003002000e4b79f0043
:10131000830807000e4346000683fb0007002000f9
:101320000000430081804b006fb29700e0ff370060
:10133000f0826200deff3a000a05e800dcff3700b9
:1013400054c6b300844f5600040032008006eb0000
:1013500054c4b300844f56002e003a00594278001e
:10136000d5c2b300854f520002003a000834a000f5
:1013700003003700b5c2b300854f520001003a00a8
:101380008904e80007c3b300890278008504780067
:101390003943780004c3b300874f5300faff32008b
:1013a0008603fb000703b1008006eb00e98f5300c2
:1013b00015003e00844653008d86fb0089027800ac
:1013c000154378008603fb000703b100e98f530043
:1013d0000d003e006a69b900844653008d86fb000b
:1013e00082864600554378008603fb000703b10060
:1013f000e98f530004003e006a69b9008446530037
:101400008d86fb008286460068026400010032007f
:101410008d06ea00e08f550003003200620264008e
:1014200001003200850d7800dffd07000002be00dc
:101430000003be006011b800e4b79f00d5b79f005d
:10144000f4b79f0087bf9f00b2fd0700000178003e
:101450006000b8006fb29700dfb297007fb39700cb
:101460008fbb9700e00f5100600032000a854600f4
:1014700032f82f00820f550003003d0024022000a7
:10148000e44d88005900370000082000800f550007
:101490000700340024022000e44d88006104640049
:1014a0004d0032000000200001f82f004f003700ef
:1014b000e00f55001f003d000a05ea000600370056
:1014c000922f2000530125000400be004ffd0700ad
:1014d0000002be006a055500e90f5500f8ff3c0008
:1014e0000600370002002000031224000400be00a2
:1014f00046fd07000002be000a05e900e00f5500a6
:10150000f8ff3a000403be00020020000308200098
:101510000400be00f4b79f0087bf9f007dfd070059
:101520007fb397008fbb9700e00f500025003d0070
:101530001f003700e00f550007003a002100370078
:10154000922f2000530125000400be00ecfd07008f
:101550000002be006a055500e94f5500f8ff3e0045
:101560000600370002002000031224000400be0021
:10157000e3fd07000002be000a05e900e00f550088
:10158000f8ff3a000403be00f2ff2f00f3f7270034
:101590000400be00f4b79f0087bf9f005ffd0700f7
:1015a0007fb397008fbb9700e00f50000500340019
:1015b000610464000b0032000000200001082800d4
:1015c0000a003700610464000100320007f0a20045
:1015d0000600be00050037000000200001f82700cb
:1015e0000200370000002000010820004f077800ab
:1015f0004f06be004f05be004f04be00af00b10055
:101600000000060008ff37008000eb0006ff3700ef
:10161000889fbe000004be00050037000000fb00ec
:1016200089007800a1040700e10f400004003200a7
:1016300038407800e04f5000f8ff3a000000eb001f
:101640004f04be0000000600881f7800a1bc2000e7
:10165000efff070000047800a1bc2000a0002000dc
:1016600092040700080078004f047800000006008c
:101670000c00fa00889fbe0000047800f4ff2700e9
:10168000d4bf9f008004eb0099bf9f0088bf9f00dc
:10169000a8bf9f00240c2000b4bf9f007881570092
:1016a000cfb0970070805700c40007000fba9700b2
:1016b000094a78000fba9700080052004f04be0094
:1016c0000080fa00000006000800fa00889fbe00b3
:1016d0008a9fbe000084fb00d4c6b300844f500034
:1016e000340036004b062000110009000b84d8009e
:1016f00081057800720040004300dd00e9a620006b
:10170000008044006022b8000600200007fe23008d
:101710005001be004000be00df0607000002be0010
:101720000203be0084bf9f0095bf9f00a6bf9f001d
:10173000b7bf9f00aa002000110009008a85d800c9
:1017400080057800e9854500c35ddd008b85440098
:101750003b02be002b03be000fb897009fb8970056
:101760002fb99700bfb99700cb0607000002be0053
:101770000203be0084bf9f0095bf9f00a6bf9f00cd
:10178000b7bf9f00110009000a84d8000104780047
:101790004344dd00888444003902be002903be00b2
:1017a0000fb897009fb897002fb99700bfb997005f
:1017b0001d003700ea4f500013003600aa00200039
:1017c000110009000a84d80001057800690440006e
:1017d0004344dd00e9a62000088444006022b800ec
:1017e0000600200007fe23003800be002801be00ce
:1017f000a90607004355dd008a8444003902be0073
:101800002903be00080037004344dd00e4a62000a1
:10181000080442006022b8000600200007fe2300f2
:101820003800be002801be009b0607004f05be0021
:101830004f04be000080fa00000006000800fa0015
:10184000889fbe008a9fbe00d4c6b300e04f500000
:1018500022003d000040ea000004fb00844f5000dd
:101860000a00340044062000110009000404d800d6
:10187000a9002000110009008900d800e9004000fb
:10188000c308dd00eaa6200020003700ea4f500020
:101890000f003400a4002000110009000404d80047
:1018a000690040004300dd00e4a620000000420083
:1018b000430cdd00080242005403be004402be0097
:1018c0005001be004000be0073060700370037001d
:1018d0004344dd00e4a62000310037000004fb0093
:1018e000844f5000230034004406200011000900fa
:1018f0000404d800a9002000110009008900d800c4
:10190000e9004000c308dd00ea9b2000810045009b
:101910003102be002103be008b0920008a854500ec
:101920003b00be002b01be005b0607000002be00ac
:101930000203be0084bf9f0095bf9f00a6bf9f000b
:10194000b7bf9f00110009000904d8000104780006
:101950004344dd00080545003a02be002a03be00ec
:101960000fb897009fb897002fb99700bfb997009d
:10197000d5ff3700ea4f500007003400a4002000d4
:10198000110009000404d800690040004300dd0094
:10199000e49b2000c5ff37004344dd00e49b2000aa
:1019a000080442003800be002801be004f05be00fa
:1019b0004f04be000080fa00000006008f03b00054
:1019c000889fbe008a9fbe008c9fbe008e1f78003d
:1019d000c0b79f00e1a79f00b2af9f006000b800b2
:1019e0006011b800f0a79f0081af9f0092af9f00e9
:1019f000a3af9f000006eb00a0033700efa0970005
:101a00008100e800e1a79f0054c2b300844f50005a
:101a100006003a00810378008002eb0001c3b300a6
:101a200000c2b300b2c2b300070037000000fb00e1
:101a3000cfb097009d030700e10f40008f033200f5
:101a40000c06e8008d033700070278003743780062
:101a5000d3c2b300834f53000900320005003c009d
:101a6000804f530008003200824f53000c003a00b0
:101a700007003700814f530009003a000600370085
:101a80000530a000f0ff37000500a000eeff370092
:101a90000510a000ecff37000520a000eaff37008a
:101aa000e2836200010032000500a100e8836200c9
:101ab000010032000520a1008603fb000703b100ee
:101ac000e98f530010003e00040378000002eb0091
:101ad00005007800840278006a2ab900b603fb008a
:101ae0000703b10084824300060278009603fb00de
:101af0000703b100e98f5300f7ff360085b79f0059
:101b0000800278000a0037008003eb0087b79f004f
:101b1000a7c2b300874f530005003a003fa89700c3
:101b2000c0007800b0af9f0081b79f000402e800ba
:101b3000e6c2b300944f130015003a0005e0a00080
:101b400064435300d44f13000300320004037800b1
:101b50000007eb00080037003fa997004207780014
:101b6000b2af9f000402e800c7c6b3000b00370005
:101b70006a70b9000087430006027800b603fb00d4
:101b80000703b100e98f5300f9ff3600f6ff370075
:101b900005c0a0000007eb00f3ff370034437800d6
:101ba000e4a79f00874f530016003200c4c6b3005d
:101bb000844f530009003c0069425200844f530097
:101bc0005d00320063424200844f53001300320034
:101bd000e04f53002e0332007700370054c7b300a4
:101be000844f53007900320063424200844f530017
:101bf0000d00320065425200844f53006e003a00df
:101c00000c003700708062000601200001003200e5
:101c10000600280086827200e0ff3700c67f9f0022
:101c200005a0a0006b003700c67f9f000570a000d4
:101c300068003700c67f9f003fab970046027800e0
:101c4000b6af9f0004047800e00f520001003a0094
:101c500048be2000080378000002eb0001003700b6
:101c60000402e800e6437a00e0cf5300fcff3a00ac
:101c700084047800e00f570003003200890f5700fa
:101c8000010031008e0478008006eb008fb39700ce
:101c9000898f5300010036008986530068876200ef
:101ca00014003a0007003700cfb097000002200070
:101cb000fe020700e10f4000010032000c06e800c0
:101cc0008d06e900e08f5600f7ff3a008086eb00b2
:101cd00008003700080278003400fb000404780094
:101ce000cfb09700f1020700e10f40000100320081
:101cf0000c06e800090278008404e900e00f5200b5
:101d0000f4ff3a00e00f5700dc0232000700370012
:101d1000cfb0970000022000e4020700e10f40006e
:101d2000010032000c06e8008d06e900e08f560045
:101d3000f7ff3a00d10237003fa897004002780031
:101d4000b0af9f0004007800cf80de000101780072
:101d500082017800d0b79f00e1b79f00f2b79f00e3
:101d600083bf9f004800de00480add0000007200cb
:101d7000c07f9f007083620009003200e04f500076
:101d800007003200e14f400005003200d07f9f0085
:101d90002feb9700e67f9f0029002000030037000b
:101da000afeb9700d77f9f0019002000d8fb2f00d2
:101db0000f044400afff3700c67f9f00c8fb2f0011
:101dc0000f04440019002000aaff3700c67f9f00bf
:101dd000050cb300d5b79f00047020005fb09700da
:101de00004026000ac013200040021000402600023
:101df000010032006e002000dfb0970070826000aa
:101e0000050032003fa897004003be004002be001c
:101e1000b0af9f00060037003fa997004200be0008
:101e2000b2af9f00840407000002be000203be00a0
:101e3000c4af9f00d5af9f00e6af9f00f7af9f00f4
:101e40006022b8006033b8004fa89700dfa8970061
:101e50006fa99700ffa99700c9030700e00f500082
:101e60000c003d004fa89700dfa897006fa99700ce
:101e7000ffa9970003f0a200c0af9f00d1af9f0061
:101e8000e2af9f00f3af9f00dfb097003100b300d7
:101e9000d1b79f000002eb0084a79f006022b8002a
:101ea0006033b8004fa89700dfa897006fa997008c
:101eb000ffa9970016040700e00f5000350032001c
:101ec0004fa89700dfa897006fa99700ffa9970078
:101ed0006805070002fc2f000f014100d104070034
:101ee0000fa097000000e9006300b900a4002000e3
:101ef000110009000400d80080a79f00e00f5000e7
:101f000002003d000000e90080a79f000fa4970099
:101f10000840ea0049fe07004faa9700dfaa970091
:101f20006fab9700ffab9700db0407000002be0019
:101f30000203be00f4a79f0085af9f0096af9f00ed
:101f4000a7af9f006022b8000600200007ff230013
:101f50008b030700e00f500002003d000804e90079
:101f60000b0037006022b800060020004702240062
:101f70007fa097008fa897001fa99700afa997008f
:101f800084030700e00f5000020035000804e80059
:101f900088a79f00f80f57000f003c000e40780004
:101fa000c9fd07000002be000203be004fa8970053
:101fb000dfa897006fa99700ffa99700f302070019
:101fc0000002be000203be00c4af9f00d5af9f0059
:101fd000e6af9f00f7af9f000fa49700e90f5400f2
:101fe00015003c006022b8006033b8004fa897008d
:101ff000dfa897006fa99700ffa99700c403070007
:10200000e00f5000320032004fa89700dfa8970081
:102010006fa99700ffa9970026040700e00f500062
:10202000e08f5800e00f5900e08f590028003a0077
:10203000e10f5400260034000400200005002e00ab
:10204000b6e02200170124007fa097008fa8970018
:102050001fa99700afa9970049030700e00f5000a0
:1020600002003d0073045400010037007204540064
:1020700088a79f000fc09700f0fd07000002be0078
:102080000203be00f4a79f0085af9f0096af9f009c
:10209000a7af9f004fa89700dfa897006fa99700f0
:1020a000ffa9970040030700020407000205be00d5
:1020b0000004be006000b8006011b800c0af9f000f
:1020c000d1af9f00e2af9f00f3af9f001700370032
:1020d0004fa89700dfa897006fa99700ffa9970066
:1020e000f40307000205be000004be00220407003e
:1020f0000002be000203be004fa89700dfa89700b1
:102100006fa99700ffa99700d80407000002be003e
:102110000203be00c4af9f00d5af9f00e6af9f0093
:10212000f7af9f000002eb0084a79f0061b2200080
:1021300010c0b300080037003102be003103be00fa
:102140000440e10005c8e10006d0e10007d8e10045
:10215000030039000040e800f44f5000f6ff3a0059
:10216000c07f9f000fa297008fb297000482520099
:102170000e0252000000fb0080065200e00f5700e4
:10218000010032008d06e9005fb39700630263002f
:10219000010032008d06e900dfb39700648263001e
:1021a0001d003200e282630061826300e08f520012
:1021b00006003200b0022000e00f520001003200a1
:1021c0000080e800cfb0970004003700e00f520015
:1021d0000e003200cfb0970000022000b3010700cc
:1021e000e10f4000090032000c06e800070037004c
:1021f000cfb0970000032000ac010700e10f4000c2
:10220000010032000c06e8008d06e900e08f560060
:10221000f7ff3c00320037005fb0970068026000b3
:102220000a003a0007003700cfb0970000022000f4
:102230009e010700e10f4000010032000c06e8009b
:102240008d06e900e08f5600f7ff3c00dfb09700f5
:10225000e282600061826000e08f5200060032007e
:10226000b0022000e00f5200010032000080e800c0
:10227000cfb0970016003700e00f52001800320070
:10228000cfb0970000022000110037008502fb004c
:10229000c32add00e2b12000850241005503be00e3
:1022a0004502be000800be000a01be004d05070041
:1022b000a4002000050020006033b800500507008e
:1022c0000403200000024200cfb097000400780011
:1022d00076010700e10f4000010032000c06e80023
:1022e0004f7a97008442e900c57f9f00e04f52007b
:1022f000e6ff3a0008003700cfb097000003200047
:102300006a010700e10f4000010032000c06e800fe
:102310000804e90088a79f000fa49700e00f54006d
:10232000f5ff3c00f20f57000300340024c1b30056
:10233000c47f9f0001003700ce7f9f004f7a970037
:102340008402fb0005075700e04f520006003200f0
:10235000cfb09700e002200054010700e10f4000d9
:10236000010032000c06e8004f78970033fd0700ab
:102370000002be000203be004fa89700dfa897002e
:102380006fa99700ffa99700c3030700490307003f
:10239000220037008502fb00c32add00e4b12000e3
:1023a000850242003500be002501be0080b79f00b7
:1023b00091b79f00a2b79f00b3b79f000203be0072
:1023c0000002be000800be000a01be0005050700ad
:1023d000a4002000050020006033b80008050700b5
:1023e0000403200000024200cfb0970004007800f0
:1023f0002e010700e10f4000010032000c06e8004a
:102400000fb297009fb297002fb39700bfb397000a
:102410000800be000a01be00f90407000205be0064
:102420000004be004f7a97008442e900c57f9f00f8
:10243000e04f5200d7ff3a0007003700cfb09700b7
:102440000003200019010700e10f400001003200e5
:102450000c06e8000e07e900e00f5700f7ff3a000e
:10246000dfb09700e882600004013200e08f560080
:1024700002013400cfb09700000220000b010700da
:10248000e10f4000010032000c06e8008d06e90073
:10249000f8ff3a00f90037005fb19700e00f5100f4
:1024a00005003d00bfa997004305be004304be00e0
:1024b000b3af9f00150037005fb39700f0026300d1
:1024c0000c0032003fa997004200be00b2af9f004f
:1024d00090a79f00a1a79f00b4a79f00c4a79f003b
:1024e0001fa49700afa497003fa59700cfa5970022
:1024f000060037003faa970044047800b4af9f005d
:10250000090020000a0020000b002000e00f570007
:1025100007003a001e002000e00f5400e08f5c002e
:10252000e00f5d00e08f5d00010032000007eb006e
:10253000dfb29700050cb200c5af9f000408200071
:10254000848f520010003200040c2000848f52004f
:1025500021003a0065b2200014c0b3003500be006f
:102560003501be000040e10001c8e10002d0e100f9
:1025700003d8e100170039000442e800f44f52008c
:10258000f6ff3a001300370014c0b300000120002a
:10259000010020006011b8000040e10001c8e10026
:1025a00002d0e10003d8e1000a0039004600200013
:1025b0000000d0008180d2000281d2008381d2004d
:1025c0000603e900faff3a000442e800f04f520027
:1025d000f1ff3a00c47f9f00cf7b97000702fb000a
:1025e0008e0f520002003d00ce7f9f000300370097
:1025f000840f570001003d00040778008fb097005a
:10260000e08f5000050032005fb197006302610067
:10261000020032008100e90081b79f00040024001d
:10262000dfb1970004826100080032000fb297000a
:102630008e0f5200030034000e02520084b79f0038
:10264000020037008002eb0085b79f004f7b9700a8
:102650000602fb008006eb008fb39700848f5300c7
:1026600001003400848653005fb09700640260006c
:102670001c003200e202600061026000e08f520044
:1026800006003200b0022000e00f520001003200cc
:102690000080e800cfb0970004003700e00f520040
:1026a00006003200cfb09700000220007f00070034
:1026b000e10f4000010032000c06e800e08f5600f8
:1026c00028003200cfb097000003200077000700f9
:1026d000e10f4000010032000c06e8008d06e90021
:1026e000f6ff3700e08f56000b003200dfb0970096
:1026f0006882600008003a00cfb097000002200016
:102700006a000700e10f4000010032000c06e800fb
:102710008d06e900f8ff3a005fb19700e202610020
:1027200061026100e08f520006003200b00220001a
:10273000e00f5200010032000080e800cfb09700a7
:1027400004003700e00f520006003200cfb09700bf
:102750000002200055000700e10f40000100320098
:102760000c06e8000e02e9004323dd00e5b120007d
:102770008502430085b79f004222dd002f0037000d
:102780000e07e900cfa9970004082000848f5100ac
:1027900010003200040c2000848f51001b003a000e
:1027a0000fb097003002be002003be000800be003c
:1027b0000a01be000b040700a40020000500200051
:1027c0006033b8000e04070004c3b30004424000a5
:1027d0000d0037000802be000a03be005fa097008c
:1027e0000000e900050033008703d1000683d30011
:1027f0008582d3000482d300f9ff37006f026200a4
:10280000b1be200061427a00c47f9f004f799700db
:102810000200fb00cfb0970024000700e10f40004a
:10282000010032000c06e8008fb19700e8815100ea
:1028300083b79f005fa2970064025200d4a79f0055
:10284000e00f5700ceff3a005fb39700e802630045
:102850000a003200e08f560008003400cfb0970025
:102860000002200011000700e10f400001003200cb
:102870000c06e8008d06e900f8ff3a00efa3970088
:1028800017407800c07f9f00e04f50005bfc3a008b
:102890000c0078004f0778004f06be004f05be00c1
:1028a0004f04be008f03b10000000600889fbe00e9
:1028b0000104780038029000e20262008084eb009c
:1028c0003b003200040378000620b200980290001a
:1028d00002003a00e08f520035003a000490a00058
:1028e0003404980080047800f90fb200e08f5200a1
:1028f00002003a00a8029000050c7800ea8f54000c
:1029000005003a000408b20003003a00880078008d
:10291000d0002000e5ff070018029000d8029000c8
:10292000850f52000b0032000402e80014049800e6
:1029300018027800094a7800040ce80015c0b300ba
:10294000c4bf2000054a7800ea8f540018003a00fe
:10295000050037008800780009407800170007005c
:102960008004780012003700380290000410b20092
:102970000f00320018019000a8009000480090005d
:102980005200070018029000840f5000040032002b
:10299000380290000403b300340498008084eb00f4
:1029a0000002eb001404980028029000040c780048
:1029b000090078004f04be00000006000200fa0083
:1029c000889fbe00a0ff9f0001047800380290009d
:1029d000840278000504b200020032000000fb000f
:1029e00035003700e202620005003a000403b3003c
:1029f00034049800150498000080eb002e00370086
:102a0000d8049000e08f540006003a001200200025
:102a1000e6805700480090002c0007001904980039
:102a200023003700a8029000e08f520008003a000f
:102a3000f5bf200025049800050c78002500200033
:102a400055049800150498000430a0003404980040
:102a500018019000a8009000480090001b0007009b
:102a6000280290008082eb0015049800affa9700ce
:102a7000054a7800040ce8002ffa9700ea4f52004c
:102a80000b003a00380290000410b2000800320037
:102a900018019000a8009000480090000b0007006b
:102aa0000002eb0014049800a8029000050c7800c6
:102ab0002ffa97000400fb004f04be000080fa00cc
:102ac0000000060000c0da00000006000a00fa005c
:102ad000e20f500022003e0014608000e10f52001f
:102ae00006003200872320004623200024232000f4
:102af00005232000e08f530004003a0087222000c5
:102b00004622200024222000052220000000280068
:102b10001500600003003a00800b780007002800d1
:102b2000958a7300054020009482620001003a00fb
:102b300014a0a000820278000600370094037800f9
:102b40000710b200fdff3200b103fb00070b780055
:102b50008502e900e08f5200f8ff3a0008003700d4
:102b600034002000b4bf9f00c0bf9f00d1bf9f00b2
:102b7000e2bf9f006a805700d2ff07006fb997003d
:102b8000020078000080fa00000006002800fa0029
:102b9000889fbe008a9fbe008c9fbe0007067800fb
:102ba000878669000c003b000304780087047800e6
:102bb00008f0a10009f0a100840f5000858f580093
:102bc000860f5900890f5c00030033000cf0a2004f
:102bd00001003a000cf0a100fe0007006400e100d3
:102be0005f003200780147006408e10061003200b4
:102bf0006c014700748557003200be001201be0010
:102c00003a04be001a05be001e039000be0a9000e2
:102c10008503530006003d000004fd008104fd0013
:102c20000205fd008305fd008703ea000503780027
:102c30000df8a3000400320060041400e0841c00be
:102c400060051d00e0851d006022b8007d032000a6
:102c50000d38e1008006eb000b0039004433dd0045
:102c6000f300b200830173003900370084827200e0
:102c70000d027800e10664008b85d1000a85d3003f
:102c80008984d3000884d3008703e900f7ff3b0061
:102c900008004000898048000a0149008b814900f2
:102ca00004003b0060001000e08018006001190083
:102cb000e08119000358a300090032008d827200e0
:102cc00084827200610260008301d1000281d3001e
:102cd0008180d3000080d3000603e8001b0037008a
:102ce0000348a30017003a000600e0001700340074
:102cf0000603e9000d00a3000000480081804800a1
:102d000002014900838149000348a3000f003a00f3
:102d10000600e000090034000603e900000040005e
:102d200081804800020149008381490001003a0086
:102d30000003eb000348a300f5ff32006022b80057
:102d4000020037008482720061826600750007000d
:102d500003f0a1000cf0a70003f0a000b1003700c1
:102d6000640147006408e10002003a000df8a30086
:102d7000a9003a003200be001201be00a9003700cf
:102d80008f1fd100000307008f87e9000000e000db
:102d900000000600809feb00fb0207008f87e90020
:102da0000000e000000006002800fa00889fbe0036
:102db0008a9fbe008c9fbe0003866b0085000700c3
:102dc0006400e100440032006408e1004a0032007f
:102dd0006100e100460032006108e1004900320074
:102de000ec0647006000b8003d02be003d03be0097
:102df000f48657006011b8003d04be003d05be00da
:102e00007d0320000b0037000000a0008d06e900c4
:102e1000130032000402420085824a0006034b0080
:102e200087834b0000004000818048000201490078
:102e3000838149000802520089825a000a035b001c
:102e40008b835b00f0ff3b000802420089824a004e
:102e50000a034b008b834b008d06e900edff3a001f
:102e60008482720086827200f707b2008782720045
:102e700001003200150020001e0490003e0b90005f
:102e800006035400e63fb0000368a30007003200c9
:102e90000000a7000500a0008301d1000281d3003b
:102ea0008180d3000080d3000603e8008301d100b5
:102eb0000281d3008180d3000080d3000002eb00a8
:102ec0000482d2001700070003f0a1000cf0a70055
:102ed00003f0a00053003700640247006408e100db
:102ee0004d0032003400be003401be00f6ff370052
:102ef0006108e100480032006011b8006000b800cd
:102f0000f1ff370003ff270002002000fbff37001e
:102f1000801feb009c0207008f87e9000000e000a3
:102f2000000006001800200057002000080453008d
:102f30000d003d000600200097fc2f000740e10037
:102f40001e00340084827200610260008301d1009f
:102f50000281d3008180d3000080d3000804e80000
:102f6000f8ff3a0047002000610460000504740087
:102f7000040464000d00320061004000e08048005d
:102f800060014900e081490003b8a5000700320054
:102f90000603e8006538e10004003a008301d1002f
:102fa0000281d3008180d3000080d300f87f20000d
:102fb0000830e10003003500080378006000b80025
:102fc0006011b8004433dd00f300b20083017300e8
:102fd00000000600680447000294be000094be0092
:102fe000fc0447008694be008494be00090078006b
:102ff000ae02070008007800ac02070099007800d4
:10300000814f70000b003b000800be0087020700e4
:103010004f00b10003003700f3ff2700f2ff2f003d
:103020006110b9004f06be004f05be004f04be0040
:103030000080fa00000006008103780003f7070013
:103040000001be006000b8000478a30013003a003d
:103050006220e10015003e000d0039008301d1001f
:103060000281d3008180d3008301d1000281d3008b
:103070008180d3008301d1000281d3008180d300fd
:103080000538b000c42add00f300b200838172006d
:1030900007f0a70003f0a00000000600f3ff2700e0
:1030a000f2ff2f006110b900fbff370003ff27007c
:1030b000f7ff37001400fa00889fbe008a9fbe0009
:1030c0008c9fbe000004be000205be0068004700e1
:1030d0000a90be000890be00740207000070a700ae
:1030e0000bf0a1000bf8a30020003a009e0990000d
:1030f0000e099000fe0090006e0090009e0290006d
:103100003443200084825200c6ff32000a003c0093
:10311000b4fc2f000428e100140034008301d10026
:103120000281d3008180d3000080d3008502e800b3
:10313000faff3a00bbff3700b40020000428e1008a
:1031400007003c0000004000818048000201490067
:10315000838149008502e900faff3a00b1ff370098
:103160000300280002002000010037006011b800b1
:103170006000b800abff3700889fbe00008270007f
:1031800004027100048271002400320036432000e2
:10319000c50020008383cf000a0039000541b1003b
:1031a0008283cf00070039000541b1008183cf0041
:1031b000040039000541b1008083cf0001003900cf
:1031c0000541b10085c353006022b80012003200ef
:1031d0000a003b0084827200610260008301d1001a
:1031e0000281d3008180d3000080d3000603e80071
:1031f0008743e800f7ff3a0007003700000040006f
:103200008180480002014900838149000603e900ea
:103210008743e900f9ff3a0042ff07004f04be0070
:10322000000006001400fa00889fbe008a9fbe00be
:103230008c9fbe00040678000004be000205be009c
:10324000680047000a90be000890be001702070001
:103250006200e1000800be000a01be000400200078
:103260000b003a001e029000e43fb1006e00900097
:10327000fe0090000e0990009e099000f300b2003d
:1032800005fe2300858171000bf0a70003f0a0006c
:10329000040e780063ff37002800fa00889fbe0004
:1032a0008a9fbe008c9fbe0003866b0049ff07000b
:1032b0000028a30064003a000128a30067003a0038
:1032c0000008a30062003a000108a30065003a006c
:1032d0001e009000be08900081064000ed3fb10046
:1032e000f4805700ee019000111ab8008e0990008a
:1032f000311bb8009e099000311cb800511db80068
:10330000f485570046000700fe0190003a000700d0
:103310008b85e8003e0007008e0990004000070002
:10332000ee019000340007008b85e80038000700ac
:103330008e099000400007009e0990001b18b800fd
:10334000890440000a854800fe019000340007000f
:103350008b85e80038000700ee0190003000070080
:103360008e0990001b18b800890440000a854800a7
:103370000a98a30008003a000402420085824a002d
:1033800006034b0087834b0008044c0089844c00e3
:103390000a054d008d06e9008482720085027300e3
:1033a0004c3add0085027200010032001500200059
:1033b000443ade001400b2004538de00cb45dd00a3
:1033c0000b007000c540de00cb4ddd008b8070002f
:1033d0004549de00cb55dd000b017100c551de0013
:1033e0000d037800cffe070003f0a1000cf0a7004a
:1033f00003f0a0000bff37001b18b8008502400047
:1034000006834800e0834b0060044c00070037004f
:103410001b18b8000603400087834800faff3700f6
:103420001b18b8008703400008844800e0844c0063
:1034300060054d00000006001b18b800080440009d
:1034400089844800faff37000108a300f2fe3a0021
:103450005800be005801be00e3ff37000008a3007b
:10346000edfe3a0009047800f9ff370007f0a200ea
:10347000c6fd37001400fa00889fbe008a9fbe0078
:103480008c9fbe000005be000206be00680047001b
:103490000c90be000a90be00840107006400e100a9
:1034a0001a00320016003e006100e1001a003200ee
:1034b0006e049000fe0490000e0b90009e0b900096
:1034c0006011b8009e0590000b38b100d5012000b6
:1034d00082817100610164008703d1000683d300fb
:1034e0008984d3000884d3008502e900f8ff3a00fc
:1034f000b0f507000df0a70001f0a000c9fe3700ed
:10350000f1ff2700f0ff2f00c6fe370001f827006b
:1035100000002000f7ff37006000b800f5ff37001b
:10352000020ab900001bb9000200b8008100420085
:103530008100430000000600889fbe008a9fbe00f5
:103540003004be002005be000404440085844c0005
:1035500006054d0087854d000898be000a90be0004
:103560000440e10005c8e10006d0e10007d8e10011
:1035700002003100680040001008e8004f05be005e
:103580004f04be00000006001000fa00889fbe0035
:103590008a9fbe000605be000404be003002be00c5
:1035a0002003be00c4b79f00d5b79f00e6b79f00b9
:1035b000f7b79f000802520089825a000a035b0095
:1035c0008b835b0084bf9f0095bf9f00a6bf9f00b9
:1035d000b7bf9f000498be000698be0011002000ef
:1035e0004fb29700dfb297006fb39700ffb3970019
:1035f0000820e10009a8e1000ab0e1000bb8e100f1
:10360000010039008000eb00108810004f05be005b
:103610004f04be000080fa00000006001400fa000b
:10362000889fbe008a9fbe008c9fbe003f0007009f
:103630000605be000404be000006eb00ccb79f00e8
:10364000bcb79f00acb79f009cb79f008cb79f0092
:103650000d0420004fb39700bfb2970086034300cc
:103660002fb29700e00f530004003d003d0007001b
:103670000f004000b0ff07000300370039000700cb
:103680000f004000c0ff0700cfb2970095bf9f001a
:10369000e08f5200090035002b00070014002000c5
:1036a000050020006033b8000000720081807200c5
:1036b00002017300838173001c0007000c06e80000
:1036c0008d0f5600e3ff3a001fba9700e00f52003b
:1036d00005003d000802be000a03be0000fe2f00e8
:1036e0000f00400094ff07004faa9700e00f520020
:1036f00008003a000fb497009fb497002fb59700c9
:10370000bfb59700d8b79f00e9b79f00fab79f00f1
:103710008bbf9f000c0007004f06be004f05be0088
:103720004f04be000080fa00000006000100070000
:103730000000060090b79f00a1b79f00b2b79f009e
:10374000c3b79f000000060001000700000006004c
:103750001fb09700afb097003fb19700cfb197006f
:10376000000006004f2bde0087037300a7b79f0001
:103770004f23de00858242008502730095b79f00cb
:10378000ffaa97004f2bde000402420004027300e0
:1037900084b79f006faa97004f23de008582420006
:1037a00085027300f5af9f00e9ff07004f18de00a8
:1037b0000402420000027200e4af9f00e4ff070031
:1037c00000004000818048000201490083814900d7
:1037d000d8ff07000802be000a03be0000fe2f004b
:1037e00000000600881f780018002000881f78005d
:1037f0008aff07008f87e9004f0478000000060069
:10380000801feb0085ff07008f87e900000006009e
:10381000889fbe008a9fbe00e00f5000e08f5800d6
:10382000e00f5900e08f59000c003d006044b800e3
:103830006055b8000000540081805c0002015d000a
:1038400083815d00180020001500070008003d007e
:10385000180007000004eb00050037000004eb002f
:103860000f00070002003d001200070018002000b2
:10387000dcff0700e00f5400060032006022b800b1
:103880006033b8000000520081805a0002015b00e2
:1038900083815b004f05be004f04be0000000600a0
:1038a000e00f5200e08f5a00e00f5b00e08f5b00fa
:1038b000000006006044b8006055b80004025400df
:1038c00085825c0006035d0087835d0000000600c2
:1038d000889fbe008a9fbe008c1f7800e00f5000ba
:1038e000e08f5800e00f5900e08f59000d003d00b7
:1038f0006044b8006055b8000000540081805c004e
:1039000002015d0083815d001c0020000820e100b1
:1039100009a8e1000ab0e1000bb8e1000d003d008c
:10392000080037000006eb00e00f5200e08f5a005d
:10393000e00f5b00e08f5b0006003d006044b800d4
:103940006055b8000402540085825c0006035d00e7
:1039500087835d00aaff0700e00f560006003200d3
:103960006022b8006033b8000000520081805a0025
:1039700002015b0083815b004f0678004f05be00ab
:103980004f04be0000000600889fbe008a9fbe0054
:103990008c9fbe000404be000605be00809fbe00d2
:1039a000829fbe002f000700040678000800be00ba
:1039b0000a01be002b000700840678004f03be00fa
:1039c0004f02be008d4f76007fb09700130033008a
:1039d000f0ff2f008b8f6b0006003b000d0666008a
:1039e0000c00a7000a00370007f0a6001000200016
:1039f0000a003700880f5200898f5a008a0f5b0037
:103a00008b8f5b00030039001000200001003e0096
:103a10000000200007f0a7000000ea004f06be00eb
:103a20004f05be004f04be0000000600e4824000c7
:103a30001078a30007003200640240001178a30050
:103a40003400be001401be00040032000330a700a1
:103a5000000006003500be001501be000330a000c6
:103a60000000060005ff2700058261000700320004
:103a70000428e100010032002400050006000700d0
:103a800001003a0044000500040805000200070098
:103a9000f9ff3a00140005006f8261008102700096
:103aa0008502710085027200000006008000780027
:103ab0005002be005003be004439de00f700b200e1
:103ac000f37f200003016100090032000218e100c9
:103ad00016003a0085017200830173008381730030
:103ae0000008200015003a004000200013003700b5
:103af00085017200830173008381730005003a0021
:103b000004a8be0006a8be00100020000b0037006d
:103b10000201e9000402420085824a0006034b00cc
:103b200087834b000748a300f9ff32000740a0003d
:103b300004a8be0006a8be00200020008000980057
:083b400092009800000006004d
:020000040000fa
:103b48000a0a0000427500006666000065720000ff
:103b5800204f000076650000726600006c6f000060
:103b6800772100000a0a0000000a00000a4300004a
:103b78006f6d00006d6100006e640000652000003c
:103b8800696e0000636f00006e6e000075650000ce
:103b9800210a00000a0000005825000066590000ac
:103ba80025660000542500006656000025660000c2
:103bb80057250000660a00000000000041000000d0
:020000040000fa
:103bc8000400fa000082eb00340f88000082eb004a
:103bd800b40f88000002eb00240f88000002eb00fd
:103be800a40f88006022b800c4488800d54888001f
:103bf8006022b800e4488800f54888000692200052
:103c08006022b800048bbe00069220006022b80033
:103c18002403980035039800869220006022b8009b
:103c2800048bbe00869220006022b800240398000e
:103c380035039800e534800004fe2f0004826200fa
:103c48006400b300e4348800e5348000f40f2e00eb
:103c5800848262000470200004827200e4348800c8
:103c680005358000f40f2e00848262000480200055
:103c780004827200043588000535800004fe2f0098
:103c8800048262009400b30004358800b4fb2d0060
:103c9800040f7800f4ef2f00140798009e0090009e
:103ca8001e00780088f20700f4f72f001e02620059
:103cb8009e0090000400780090f20700e0ff2f00bb
:103cc8005df20700e0ff2f006df2070041c32000fe
:103cd800d0fa2500b7f20700d0ff2f0094f20700b2
:103ce80005e1a8000080fa00000006000000fa00c4
:103cf80047f207004bf207000080fa0000000600b8
:103d0800849fbe000000fa009b40a900050f8000b8
:103d18000480200004826200e00f52000400320098
:103d2800d44880000402e800d44888000300370023
:103d3800d44880000402e900d44888008b40a900d8
:103d48009b40a8000080fa004f02be000040060019
:103d5800849fbe000000fa009d60a900850f8000c6
:103d68000480200004826200e00f52000400320048
:103d7800f44880000402e800f44888000300370093
:103d8800f44880000402e900f44888008d60a90026
:103d98009d60a8000080fa004f02be0000400600a7
:103da8003600f800809fbe00829fbe00849fbe0040
:103db800869fbe00889fbe003400f80000002000e7
:103dc800a00188000800fa009b40a9009d60a90096
:103dd800240f8000c4488800a40f8000e4488800ad
:103de80004922000059220001503be0026029800c8
:103df8003702980004922000c6488000d748800007
:103e0800068abe0084922000859220001503be0019
:103e1800260298003702980084922000e648800025
:103e2800f7488000068abe009b40a8009d60a80055
:103e3800049220001403be0004922000b4029000f3
:103e4800240290000402530085825b000400be0037
:103e580053f307000002be000401be000400be00c8
:103e680089f207000002be00b2fd2000930424007e
:103e78000400be00a0f307000002be0002002000fc
:103e8800a34f24000400be00def207000002be00bb
:103e9800c4498800d5498800849220001403be00d4
:103ea80084922000b402900024029000040253007f
:103eb80085825b000400be0039f307000002be00e3
:103ec8000401be000400be006ff207000002be003d
:103ed800b2fd2000930424000400be0086f307000e
:103ee8000002be0002002000a34f24000400be0010
:103ef800c4f207000002be00e4498800f5498800c2
:103f0800c4498000d5498000b2f12200d3cd2300f6
:103f18000400be0078f307000002be00a2702d0066
:103f280033ba23000400be00b6f207000002be0048
:103f38008449880095498800e4498000f549800053
:103f4800b2f12200d3cd23000400be006af30700bb
:103f58000002be00a2702d0033ba23000400be0088
:103f6800a8f207000002be00a4498800b5498800ed
:103f7800c6498000d7498000e4498000f54980009f
:103f88000401be000600be003ff207000002be00aa
:103f9800b2f12200d3cd23000400be0056f307007f
:103fa8000002be0002002000030024000400be003e
:103fb80094f207000002be00048fbe00c6498000cc
:103fc800d7498000e4498000f54980000401be001b
:103fd8000600be002bf207000002be00b2f122006c
:103fe800d3cd23000400be0043f307000002be0047
:103ff80032cb200013eb23000400be0081f207003f
:104008000002be002407980035079800084a80007f
:10401800194a8000444a8000554a80000400be00c6
:1040280076f207000002be001e01be000400be00ba
:1040380031f307000002be000401be000800be0004
:1040480011f207000002be00044a8800154a8800e1
:10405800284a8000394a8000444a8000554a800036
:104068000400be00c1f307000002be001e01be002e
:104078000400be0020f307000002be000401be00d9
:104088000800be0000f207000002be00244a8800b3
:10409800354a8800444a8000554a80002e01900025
:1040a800be0190000400be00f7f107000002be0048
:1040b800444a8800554a8800049220001402be0031
:1040c8000400be00b6f207000002be00b2f12200f2
:1040d800d3cd23000400be0007f307000002be0092
:1040e800b2fd2000930424000400be0002f3070080
:1040f8000002be000401be000400be00e2f1070099
:104108000002be0002002000a34f24000400be00ed
:104118003cf207000002be00644a8800754a880025
:10412800849220001402be000400be009cf2070026
:104138000002be00b2f12200d3cd23000400be006d
:10414800edf207000002be00b2fd20009304240037
:104158000400be00e8f207000002be000401be0031
:104168000400be00c8f107000002be0002002000e3
:10417800a34f24000400be0022f207000002be0084
:10418800844a8800954a8800a44a8000b54a80007d
:104198001e01be000400be00bbf107000002be0005
:1041a800a44a8800b54a8800a2702d0033ba2300bb
:1041b8001e00be0013f207000002be00c44a8800b9
:1041c800d54a8800a2702d0033ba23002e00900033
:1041d800be0090000bf207000002be00e44a88000f
:1041e800f54a88008449800095498000044b88007e
:1041f800154b8800a4498000b5498000244b8800ed
:10420800354b88008460a9000080fa003400f9006a
:104218004f04be004f03be004f02be004f01be0058
:104228004f00be003600f900004006000000fa000a
:104238006022b800044a8800154a88006022b80045
:10424800244a8800354a88006022b800444a880019
:10425800554a88006022b800644a8800754a880078
:104268006022b800844a8800954a88006022b80015
:10427800a44a8800b54a88006022b800c44a880069
:10428800d54a88006022b800e44a8800f54a8800c8
:104298006022b800044b8800154b88006022b800e3
:1042a800244b8800354b88000080fa000000060087
:1042b800c800fa00889fbe00e84a8000f94a8000da
:1042c800c24a8000d34a8000404a8000514a800098
:1042d800264a8000374a8000044a8000154a800038
:1042e800889fbe00829fbe00809fbe00869fbe0042
:1042f800849fbe0004dd2900841f78000e0078002a
:10430800d9f40700f68757000e007800ba060700b0
:104318004f04be000080fa00000006000c00fa00fe
:10432800008fbe00220798003307980044079800c2
:104338005507980032cb200013eb23002e00900085
:10434800be0090006cf207000002be0002002000d0
:10435800030024000400be00aaf107000002be000a
:104368000401be001e00be0046f107000002be00a8
:104378004e039000048bbe0032cb200013eb2300c9
:104388002e009000be0090005bf207000002be0005
:1043980002002000030024000400be0099f1070079
:1043a8000002be001e01be000400be0036f1070078
:1043b8000002be005e039000048bbe000080fa007d
:1043c800000006000000fa00849520000400780030
:1043d8000080fa00000006000c00fa00008fbe0002
:1043e800220798003307980044079800550798005b
:1043f8001e02be00044a8800154a88002e0290005a
:10440800be029000244a8800354a88004e02900077
:10441800de029000444a8800554a88000080fa006d
:10442800000006000000fa00049420000400780050
:104438000080fa00000006001000fa00881f7800cb
:104448004007980051079800620798007307980082
:104458006022b800048fbe006022b80024079800cc
:104468003507980018c0b3000200200003f02300ad
:104478004e009000de009000a6f1070000027800d0
:10448800e00f520001003c000044eb00e04f5400f4
:10449800040032000400200005f02300048fbe0051
:1044a8001300370018c0b3000200200003f02b00ef
:1044b8004e009000de00900094f1070000027800a2
:1044c800e00f5200010035000044eb00e04f5400bb
:1044d800040032000400200005f02b00048fbe0009
:1044e800030037004e029000de029000048fbe00e9
:1044f80018c0b30002002000030024006e009000e2
:10450800fe00900083f1070000027800e00f5200df
:1045180001003c000044eb00e04f5400050032006d
:10452800040020000500240024079800350798009f
:104538001500370018c0b3000200200003002c004b
:104548006e009000fe00900070f1070000027800f5
:10455800e00f5200010035000044eb00e04f54002a
:10456800050032000400200005002c0024079800f4
:1045780035079800040037006e029000fe02900094
:104588002407980035079800a4438000b40a9000d7
:10459800240a90006443880075438800a44380007f
:1045a800d402900044029000844388009543880018
:1045b80064438000754380002443880035438800a5
:1045c8008443800095438000444388005543880015
:1045d80024438000354380001e01be000400be0055
:1045e800a9f007000002be00244388003543880074
:1045f80044438000554380002e019000be01900086
:104608000400be00a0f007000002be00444388007a
:10461800554388004f0478000080fa000000060027
:104628000000fa0044438000554380002643800080
:10463800374380000401be000600be005d0007008d
:10464800690007007b0007000080fa0000000600f0
:104658000000fa00a4438000d402900044029000b5
:10466800a6438000b60b9000260b90000401be0004
:104678000600be004f000700608720002a020700de
:10468800c089200028020700570007000080fa00b0
:10469800000006000000fa0062ff07000002780030
:1046a800a4438800f44c8000054d8000344c8800f9
:1046b800454c880094432b0085d42300544c880033
:1046c800654c88006022b800744c8800854c8800ce
:1046d800f44c8000054d80000200200003002400f7
:1046e8000400be00c7f007000002be00944c88001a
:1046f800a54c8800d4cc2c00c5dc2300b44c880021
:10470800c54c88006022b800d44c8800e54c88006d
:1047180060872000b20107006198200060872000b0
:10472800d9010700a4438000b40a9000240a90002d
:104738000401be00608720000e020700c089200027
:10474800a701070021992000c0892000ce01070099
:10475800a4438000d4029000440290000401be00eb
:10476800c08920000302070011c0b3006087200041
:10477800da0107000200200003f823006087200008
:10478800de01070011c0b300c0892000d301070073
:104798000200200003002400c0892000d701070080
:1047a8006011b8006000b800020007000080fa003d
:1047b800000006000800fa00008fbe0022079800db
:1047c800330798001e01be0060872000de01070045
:1047d8002e019000be019000c0892000da01070078
:1047e8000080fa00000006000000fa00a4438000e0
:1047f800b40a9000240a90000401be0060872000db
:10480800dc010700a4438000d40290004402900019
:104818000401be00c0892000d6010700608720007f
:10482800e7010700c0892000e50107000080fa00c1
:10483800000006000800fa00889fbe00608720007c
:10484800d70107000004be00c0892000d40107007a
:104858000002be0032cb200013eb23000400be0090
:1048680025f107000002be0002002000030024001a
:104878000400be0063f007000002be000401be0091
:104888000800be0000f007000002be00048fbe0052
:1048980060872000c20107000004be00c089200014
:1048a800bf0107000002be0032cb200013eb23003b
:1048b8000400be0010f107000002be000200200044
:1048c800030024000400be004ef007000002be00f2
:1048d8000401be000800be00eaef07000002be00a7
:1048e800240798003507980002002e00f34f240093
:1048f8001e00be0000f107000002be000400be005a
:1049080086f007000002be00040278000400780068
:10491800c504070002002e00f34f24002e0090006b
:10492800be009000f4f007000002be000400be00c4
:104938007af007000002be00040278000400780044
:10494800e40407004f04be000080fa0000000600df
:020000040000fa
:10495800ba0900000200000000000000c2080000c0
:104968005600000000000000a20900001800000026
:10497800020000000000000000000000000000002d
:10498800000000000000000000000000000000001f
:1049980000000000680900001e0000000000000080
:1049a8000008000064000000020000000000000091
:1049b80000000000000000000000000000000000ef
:1049c80000000000000000000000000000000000df
:1049d80000000000000000000000000000000000cf
:1049e80000000000000000000000000000000000bf
:1049f80000000000000000000000000000000000af
:104a0800000000000000000000000000000000009e
:104a1800000000000000000000000000000000008e
:104a2800000000000000000000000000000000007e
:104a380000000000180900005000000000000000fd
:104a4800640800005e000000000000008609000005
:104a58001c00000002000000000000000000000030
:104a6800000000000000000000000000000000003e
:104a780000000000000000000000000040000000ee
:104a8800bc0900000200000000000000fc0b000050
:104a98000600000000000000be0b00002600000019
:104aa80002000000fd0b000000fd0b0009000000e3
:104ab80000020000ff0b000000ff0b000e020100c7
:104ac80000000000000000000000000006020200d4
:104ad80000000000be0b0000e40b000018000000fe
:104ae80002000000286e75006c6c2900003031004f
:104af8003233340035363700383961006263640078
:104b0800656600001e0b0000a00000000200000007
:104b1800010000000000000000000a000000000082
:104b28000000000000640000000000000000000019
:104b3800e80300000000000000001000270000004b
:104b48000000000000a08600010000000000000036
:104b580040420f000000000000008000969800000e
:104b6800000000000000e100f50500000000000062
:104b780000ca9a003b00000000000000e40b54004b
:104b8800020000000000e80076481700000000005e
:104b98000010a500d4e8000000000000a0724e003c
:104ba80018090000000040007a10f3005a000000c5
:104bb8000080c600a47e8d000300000000c16f00c5
:104bc800f2862300000000008a5d7800456301003a
:104bd80000006400a7b3b600e00d000000e88900fb
:104be8000423c7008a000000be090000600100001d
:104bf800020000000000000000000000f03f00007c
:104c08000000000000002400400000000000000038
:104c18000059400000000000000040008f400000e4
:104c2800000000000088c3004000000000000000f1
:104c38006af8400000000000008084002e41000057
:104c480000000000d0126300410000000000840052
:104c5800d7974100000000000065cd00cd4100005d
:104c6800000020005fa002004200000000801d003c
:104c7800af1544000000000040593e0029460000de
:104c8800000000000000f0007f00000000000000ad
:104c980000f07f000000000000000000f07f00002e
:104ca800000000000000f0007f000000000000008d
:104cb80000f07f000000000000000000f07f00000e
:104cc800000000000000f0007f000000000000006d
:104cd80000f07f000000000000000000f07f0000ee
:104ce800000000000000f0003f00000000a0990054
:104cf80099b93f000000000040e17a00843f0000bd
:104d08000000e0004d6250003f00000000e0e200bb
:104d1800361a3f000000000080b5f800e43e0000ad
:104d28000000a000f7c6b0003e00000000a0f2009e
:104d3800d77a3e0000000000e08e7900453e000072
:104d48000000e0000b2e11003e00000000e0df0034
:104d58007cdb3d000000000000a19c00c73b000078
:104d6800000000004c48b40039000000000020009a
:104d78006ca13700000000000000000000000000e7
:104d8800000000000000000000000000000000001b
:104d9800000000000000000000000000000000000b
:104da80000000000000000000000000000000000fb
:104db80000000000000000000000000000000000eb
:104dc800000000000000000000000000020c0000cd
:104dd80002000000020000000100000000000000c6
:020000040000fa
:104de8000200fa00000f78001e0378006022b80065
:104df800048bbe001e0378006022b80024039800cc
:104e0800350398001e0378006022b8004403980018
:104e1800550398001e0378006022b80064039800c8
:104e2800750398001e0378006022b800040b9800f0
:104e3800150b98009e0278000042eb00c4529800bf
:104e48001e0378006022b800340b9800450b9800c8
:104e58001e0378006022b800540b9800650b980078
:104e68001e0378006022b800740b980005139800a0
:104e78001e0378006022b8001413980025139800c8
:104e88000080fa00000006000400fa00000f780015
:104e9800110798001e029000680242001402be002a
:104ea8001e03780044039800550398001e029000e2
:104eb800640242001402be001e0378002403980016
:104ec800350398001e0290001402be001e037800ed
:104ed800048bbe000080fa00000006000400fa00ff
:104ee800000f7800214798001e027800ae4290001b
:104ef800455298000080fa00000006000600fa00fb
:104f0800000f780012079800230798001e02780007
:104f18001e039000ae039000360a9800470a9800d6
:104f28000080fa00000006000200fa00000f780076
:104f38001e0378006022b800640398007503980087
:104f48000080fa00000006000600fa00000f780052
:104f580012079800230798001e0278001e0390008d
:104f6800ae039000760a9800071298000080fa00b5
:104f7800000006000600fa00000f780012079800eb
:104f8800230798001e0278001e039000ae039000cd
:104f980016129800271298000080fa0000000600f8
:104fa8000200fa00000f78001e027800e40a900060
:104fb800540a90000400be000080fa0000000600b9
:104fc8000600fa00889fbe00200798002e02900075
:104fd800740b9000841390002e029000a41290008d
:104fe800141290000401be000600be0025ee070062
:104ff8000002be00048fbe002e029000f402900052
:10500800640290001e01be000400be001eee0700f0
:105018000002be002e0390006403980075039800f8
:105028002e02900044529000e14f52002f003a00a7
:105038002e02900064039000f40390002e0290006a
:10504800c40a9000340a900018c0b3000401be00de
:105058000600be00afee070000027800e00f520025
:1050680001003c000044eb00e04f54000700320010
:105078002e029000c40a9000340a90002e0390007b
:105088006403980075039800180037002e029000fa
:1050980064039000f40390002e029000c40a90006c
:1050a800340a900005f0a20018c0b3000401be0045
:1050b8000600be0095ee070000027800e00f5200df
:1050c800010035000044eb00e04f540007003200b7
:1050d8002e029000c40a9000340a900005f0a20045
:1050e8002e03900064039800750398002e02900028
:1050f8001402be001e01be000400be00feee070042
:105108000002be002e039000540b9800650b980017
:105118002e029000540c9000e40c90002e02900097
:1051280064039000f40390002e029000b4029000f3
:10513800240290000401be000600be00eeee070047
:105148000002be000401be000800be00ceed07004c
:105158000002be002e039000540b9800650b9800c7
:105168002e029000540c9000e40c90002e02900047
:10517800940a9000040a90000401be001e00be00bc
:10518800c0ed07000002be000403be002e0290001e
:10519800d4029000440290000401be000600be0044
:1051a800d5ee07000002be000401be000800be00e4
:1051b800b5ed07000002be002e039000540b9800c6
:1051c800650b98002e0290001e03be00060a980088
:1051d800170a98004f04be000080fa00000006007d
:1051e8000800fa00881f7800008fbe002207980088
:1051f8003307980018c0b3000200200003f0230012
:105208001e00be0043ee070000027800e00f5200c7
:1052180001003c000044eb00e04f54000500320060
:105228000400200005f02300144688002546880065
:105238001300370018c0b3000200200003f02b0051
:105248001e00be0031ee070000027800e00f520099
:10525800010035000044eb00e04f54000500320027
:105268000400200005f02b0014468800254688001d
:10527800030037001e02be00144688002546880039
:1052880018c0b3000200200003fc23002e00900089
:10529800be0090001fee070000027800e00f5200e9
:1052a80001003c000044eb00e04f540005003200d0
:1052b8000400200005fc2300344688004546880089
:1052c8001500370018c0b3000200200003fc2b00b3
:1052d8002e009000be0090000cee0700000278003f
:1052e800e00f5200010035000044eb00e04f54008d
:1052f800050032000400200005fc2b00344688001d
:1053080045468800040037002e029000be02900037
:1053180034468800454688004f0478000080fa002b
:10532800000006000800fa00364680004746800064
:1053380010468000214680006402470084027800fd
:105348000e0278000601be00f4fb07002e02900052
:10535800be0290001e03be000401be000600be008f
:105368005800070064000700760007000080fa0074
:10537800000006000000fa0054468000f402900085
:105388006402900056468000d603900046039000c1
:105398000401be000600be004a000700c08c2000c1
:1053a800e1fe0700208f2000dffe07005200070003
:1053b8000080fa00000006000000fa0001fc070067
:1053c8000002780054468800d4cc2c00c5ec230099
:1053d800144d8800254d8800a4672300b5da230002
:1053e800344d8800454d88006022b800544d88002f
:1053f800654d8800d4cc2c00c5ec2300744d880082
:10540800854d8800a4672300b5da2300944d8800f1
:10541800a54d88006022b800b44d8800c54d8800ad
:10542800c08c20006efe0700219a2000c08c20004e
:1054380095fe070054468000d40290004402900074
:105448000401be00c08c2000cafe0700208f200087
:1054580063fe0700e19a2000208f20008afe0700e3
:1054680054468000f4029000640290000401be00db
:10547800208f2000bffe070011c0b300c08c2000a1
:1054880096fe07000200200003122400c08c2000b2
:105498009afe070011c0b300208f20008ffe07007e
:1054a8000200200003122400208f200093fe070032
:1054b8006011b8006000b800020007000080fa0020
:1054c800000006000800fa00008fbe0022079800be
:1054d800330798001e01be00c08c20009afe07000a
:1054e8002e019000be019000208f200096fe07003c
:1054f8000080fa00000006000000fa005446800010
:10550800d4029000440290000401be00c08c200028
:1055180098fe070054468000f40290006402900050
:105528000401be00208f200092fe0700c08c2000de
:10553800a3fe0700208f2000a1fe07000080fa00cc
:10554800000006000000fa00c08c200094fe07004e
:105558000002be0002002e00f34f24000400be002b
:10556800e5ed07000002be000400be006bed070079
:105578000002be000402780004007800aa010700b7
:10558800208f200086fe07000002be0002002e00c9
:10559800f34f24000400be00d7ed07000002be0050
:1055a8000400be005ded07000002be0004027800a2
:1055b80004007800c70107000080fa000000060018
:1055c8000200fa00000f78001e0378006022b8007d
:1055d800048bbe001e0378006022b80024039800e4
:1055e800350398001e0378006022b8004403980031
:1055f800550398001e0378006022b80064039800e1
:10560800750398001e0378006022b800040b980008
:10561800150b98001e0378006022b800240b980030
:10562800350b98001e0378006022b800440b9800e0
:10563800550b98001e0378006022b800640b980090
:10564800750b98001e0378006022b80004139800b8
:10565800151398000080fa00000006000400fa0004
:10566800889fbe00000f7800110798001e02900066
:10567800680242001402be001e037800440398002a
:10568800550398001e0290001404be001e029000ec
:10569800680242001402be000401be000400be00fd
:1056a80079ec07000002be000401be000800be003d
:1056b80075ec07000002be0005f0a2001e0378008a
:1056c80024039800350398001e0290001403be00be
:1056d8001e029000640242001402be000401be00d3
:1056e8000600be0068ec07000002be000403be000e
:1056f8001e029000680242001402be000401be00af
:105708000600be0060ec07000002be001e03780021
:10571800048bbe004f04be000080fa0000000600a3
:105728000600fa00000f7800120798002307980077
:105738001e0278001e039000ae039000660a9800cf
:10574800770a98000080fa00000006000600fa00b8
:10575800000f780012079800230798001e027800af
:105768001e039000ae0390000612980017129800ce
:105778000080fa00000006000200fa00000f78001e
:105788001e027800d40a9000440a90000400be006b
:105798000080fa00000006000200fa00889fbe00a0
:1057a800000f78001e027800940a9000040a900006
:1057b8001e037800240b9800350b98001e02780011
:1057c800f4029000640290001e037800040b980015
:1057d800150b98001e027800640b9000f40b9000e3
:1057e8001e02780094129000041290000401be007a
:1057f8000600be0023ec07000002be001e0378006e
:1058080064039800750398001e027800440c900009
:10581800d40c90001e027800240b9000b40b90006a
:105828001e027800d4029000440290000401be00d9
:105838000600be0030ed07000002be000401be00f5
:105848000800be0010ec07000002be001e0378002e
:10585800440b9800550b98001e027800440c9000e9
:10586800d40c90001e027800040b9000940b90005a
:105878001e027800b4029000240290000401be00c9
:105888000600be001ced07000002be000401be00b9
:105898000800be00fceb07000002be001e037800f3
:1058a800440b9800550b98001e027800440c900099
:1058b800d40c90001e02780064039000f40390005a
:1058c8001e0278001402be000401be000600be00dd
:1058d80009ed07000002be000401be000800be007a
:1058e800e9eb07000002be001e037800440b980095
:1058f800550b98004f04be000080fa000000060017
:105908000600fa0040479800254c80003406200025
:10591800848f5200040034000002eb00244c8800fd
:1059280040da290046ef07004e429000ea4f520045
:1059380008003200244c80000580200085024200c7
:105948004e439000864a78000402e800244c880000
:1059580012003700254c8000048020008482420019
:105968000042eb00844a78001080200022010700e2
:105978001080200022ef07000002be00048fbe0046
:1059880004802000144278001e01be000440780004
:10599800090007000002eb00244c88000080fa0090
:1059a800000006000000fa000002eb00244c88000a
:1059b8000080fa00000006000600fa00004f780098
:1059c80012079800230798001e02fb006123b90004
:1059d800c4fb2f00f5ff2f000602420087824a0011
:1059e800b602200007002000860f5200878f5a0059
:1059f8005f003e00046001005b003700580037007c
:105a08005b0037005a00370059003700580037004c
:105a1800570037005600370023003700540037007e
:105a2800530037003e0037004b0037005000370066
:105a38004700370044003700200037004c0037008b
:105a48002d00370031003700490037004800370083
:105a5800470037004600370045003700440037004c
:105a6800430037004200370041003700400037004c
:105a78003f0037003e0037003d0037003c0037004c
:105a88003b0037003a00370039003700380037004c
:105a9800370037003600370035003700340037004c
:105aa800330037000a0037001e029000ae02900053
